:020000040800F2
:100000007004002045010008953000089730000872
:100010009B3000089F300008A3300008000000005B
:10002000000000000000000000000000A7300008F1
:10003000A930000800000000AB300008AD30000817
:100040005F0100085F0100085F0100085F01000810
:100050005F0100085F0100085F0100085F01000800
:100060005F0100085F0100085F0100085F010008F0
:100070005F0100085F0100085F0100085F010008E0
:100080005F0100085F0100085F0100085F010008D0
:100090005F0100085F0100085F0100085F010008C0
:1000A0005F0100085F0100085F0100085F010008B0
:1000B0005F0100085F0100085F0100085F010008A0
:1000C0005F0100085F0100085F0100085F01000890
:1000D0005F0100085F0100085F0100085F01000880
:1000E0005F0100085F0100085F0100085F01000870
:1000F0005F0100085F0100085F0100085F01000860
:100100005F0100085F0100085F0100085F0100084F
:100110005F0100085F0100085F0100085F0100083F
:100120005F0100085F0100085F0100085F0100082F
:10013000DFF80CD003F004FA00480047AD2F0008A8
:10014000700400200648804706480047FEE7FEE7A7
:10015000FEE7FEE7FEE7FEE7FEE7FEE7FEE7FEE777
:100160006D2900083101000836490143364A116003
:10017000704770B5002100230F22C4784CB3324C75
:10018000246804F4E064C4F5E0644FEA1421C1F18A
:10019000040322FA01F2447804FA03F1847804EAB1
:1001A000020444EA01014FEA0111284C0678A155E6
:1001B000047804F01F054FF0010404FA05F40578F3
:1001C0004FEA65154FF0E02606EB8505C5F80041BE
:1001D00009E0047804F01F050124AC401C4D0678AA
:1001E000761145F8264070BD1A4A0A4002431A4B60
:1001F0001A60704741B1194A126842EA00024FF092
:10020000E023C3F8102D07E0144A126822EA000226
:100210004FF0E023C3F8102D7047042808D14FF0A9
:10022000E021096941F004014FF0E022116107E08B
:100230004FF0E021096921F004014FF0E022116143
:10024000704700000000FA050CED00E000E400E05B
:1002500080E100E080FFFF1F08ED00E010ED00E00E
:1002600010B50446F848844208D10121401501F038
:10027000EAF90021601501F0E6F917E0F34884423D
:1002800008D10121001501F0DEF90021201501F04F
:10029000DAF90BE0EE48844208D10121C80301F0ED
:1002A000D2F900214FF4004001F0CDF910BD30B576
:1002B0000246002000235068E64C20400D790C686F
:1002C00044EA0524204350609068E34C2040D1E983
:1002D00002542C434D7944EA450420439060D06A8F
:1002E00020F470000C7C641EE4B2234340EA035007
:1002F000D06230BD00210160017141718160C16037
:1003000001210174704721B1826842F001028260CC
:1003100003E0826822F001028260704721B18268A6
:1003200042F48072826003E0826822F4807282600C
:10033000704710B50023CBB21AB144681C43446027
:1003400002E044689C43446010BD816841F00801AC
:1003500081607047014600208A6812F0080F01D0C2
:10036000012000E000207047816841F004018160B5
:100370007047014600208A6812F0040F01D0012066
:1003800000E00020704721B1826842F4A002826040
:1003900003E0826822F4A0028260704701460020D8
:1003A0008A6812F4800F01D0012000E0002070471D
:1003B00010B50A4600210023416821F46041531E14
:1003C00041EA4331416010BD21B1426842F400620C
:1003D000426003E0426822F4006242607047F0B578
:1003E00004460D4600200021092D11DDE068A5F12D
:1003F0000A0606EB4607072606FA07F18843A5F129
:100400000A0606EB460603FA06F10843E0600CE034
:10041000206905EB4507072606FA07F1884305EB37
:10042000450603FA06F108432061072A0FDA606BDC
:10043000561E06EB86071F2606FA07F18843561E4E
:1004400006EB860605FA06F10843606322E00D2AF2
:100450000FDA206BD61F06EB86071F2606FA07F178
:100460008843D61F06EB860605FA06F1084320638B
:1004700010E0E06AA2F10D0606EB86071F2606FAD9
:1004800007F18843A2F10D0606EB860605FA06F190
:100490000843E062F0BD21B1826842F480128260BC
:1004A00003E0826822F48012826070470146C86CC3
:1004B00080B2704769480068704721B1426842F4D1
:1004C0008062426003E0426822F4806242607047CA
:1004D00021B1426842F48052426003E0426822F453
:1004E0008052426070470A460021816821F4E04151
:1004F00011438160704721B1826842F400428260FA
:1005000003E0826822F400428260704721B1826871
:1005100042F40212826003E0826822F402128260D6
:100520007047014600208A6812F4001F01D00120A4
:1005300000E000207047F0B5044615460020002278
:100540000026092911DDE068A1F10A0707EB470C35
:10055000072707FA0CF29043A1F10A0707EB4707B8
:1005600003FA07F21043E0600CE0206901EB410C54
:10057000072707FA0CF2904301EB410703FA07F251
:1005800010432061A06BC0F30156EF1C06F1010C73
:10059000A7EB0C0707EB870C1F2707FA0CF2904319
:1005A000EF1C06F1010CA7EB0C0707EB870701FA1C
:1005B00007F21043A063F0BD10B50A4600210023E6
:1005C000816B21F44011531E41EA0351816310BD38
:1005D00010B5002303460B441A6010BD02460023E9
:1005E000134601F128000344186880B270470A4698
:1005F000002141681A4B1940114341607047416224
:10060000826270470A460021416821F01F011143B0
:100610004160704738B11349096841F40001124A3A
:10062000C2F8081406E00F49096821F400010E4AD7
:10063000C2F8081470470246002013680B4201D02C
:10064000012000E000207047002401400028014004
:10065000003C0140FFFEF0FFFDF7F1FF4C2401409C
:10066000FFFD3FFF0824014000200140CA43026013
:10067000704770B502460020002300240B12556815
:10068000CEB205EA060415681D4202D00CB1012065
:1006900000E0002070BD00220A12D34303607047BF
:1006A00001684FF6FE721140016000210160416057
:1006B0008160C1608749884208D186490839496804
:1006C00041F00F01834A083A516088E081491431B2
:1006D000884208D17F490839496841F0F0017D4AD4
:1006E000083A51607BE07B492831884208D179493A
:1006F0000839496841F47061764A083A51606EE001
:1007000074493C31884208D172490839496841F43A
:100710007041704A083A516061E06E495031884238
:1007200008D16C490839496841F47021694A083A8E
:10073000516054E067496431884208D165490839FD
:10074000496841F47001634A083A516047E06149E1
:100750007831884208D15F490839496841F07061B1
:100760005C4A083A51603AE05B49884208D1A0F1FE
:100770000401096841F00F01584AC2F804142EE040
:1007800055491431884207D15549096841F0F001B3
:10079000524AC2F8041422E04F492831884207D156
:1007A0004F49096841F470614C4AC2F8041416E0DC
:1007B00049493C31884207D14949096841F47041AF
:1007C000464AC2F804140AE043495031884206D12F
:1007D0004349096841F47021404AC2F80414704743
:1007E00010B50022026847F6F0739A430C6A8B68D2
:1007F00023430C6923434C6923438C692343CC690D
:1008000023434C6A23438C6A23431A430260CB6818
:1008100043600B6883604B68C36010BD00210160BA
:1008200041608160C160016141618161C1610162BA
:1008300041628162704721B1026842F001020260A8
:1008400004E002684FF6FE731A40026070471AB166
:1008500003680B43036002E003688B430360704747
:10086000416070470146486880B2704701460020E9
:10087000002211F0805F02D01A4B1A6801E0174B7A
:100880001A680A4201D0012000E00020704710F0F1
:10089000805F02D01249086001E01049486070474B
:1008A00001460020002211F0805F02D00D4B1A6833
:1008B00001E00A4B1A680A4201D0012000E0002042
:1008C000704710F0805F02D00549086001E00349DD
:1008D00048607047080002400804024000000240DF
:1008E00004040240000402400020474908604749D0
:1008F000C1F804044649086001F104010860454854
:1009000045490860704700213F498279DAB33F4A80
:10091000D2F8002403689A433C4BC3F800241A46DB
:10092000D2F8042403689A4301F104031A6002799F
:1009300011440A68036842EA03020A60334AD2F8A3
:100940000824036822EA0302304BC3F808241A463D
:10095000D2F80C24036822EA0302304B1A60427971
:10096000102A11D1294AD2F8082403681A43274BC8
:10097000C3F808241A46D2F80C2403681A43234B00
:10098000C3F80C240EE007E01F49427911440A68BD
:1009900003681A430A6005E0027911440A68036893
:1009A0009A430A6070470021016001710C21417176
:1009B0000021817170471A49096841EA0001134A10
:1009C000C2F81014704701460020134A12680A4208
:1009D00001D0012000E0002070470F4908607047F7
:1009E000014600200022084B1B6803EA0102074B66
:1009F000D3F814340B4202D00AB1012000E00020E9
:100A0000704705490860704700040140000001403C
:100A100008040140FFFF0F00140401400C040140D2
:100A20001004014001460020FF4A106800F0380021
:100A3000084310607047FC49096821F00801FA4A30
:100A4000116011460968014311607047F649096851
:100A500021F01001F44A1160114609680143116048
:100A60007047F248F0494860F14848607047EF48E5
:100A7000ED494860EE4848607047EB48006940F037
:100A80008000E94908617047E748006940F080004C
:100A9000E549086170470420E349C96801F0010194
:100AA000012901D101200EE0DF49C96811F0040FCE
:100AB00001D0022007E0DC49C96811F0100F01D015
:100AC000032000E00420704700B502460423FFF72E
:100AD000E2FF034603E0FFF7DEFF0346521E012B51
:100AE00001D1002AF7D102B90523184600BD30B55F
:100AF000044604254FF43020FFF7E6FF0546042D99
:100B000017D1C948006940F00200C749086108468A
:100B10004461006940F0400008614FF43020FFF765
:100B2000D3FF0546C048006941F6FD710840BE4943
:100B30000861284630BD10B504244FF43020FFF77B
:100B4000C3FF0446042C16D1B748006940F00400E6
:100B5000B54908610846006940F0400008614FF45B
:100B60003020FFF7B1FF0446AF48006941F6FB7142
:100B70000840AD490861204610BD00B50246042377
:100B8000FFF789FF034603E0FFF785FF0346521E88
:100B9000012B01D1002AF7D102B90523184600BD67
:100BA00010B504244FF43020FFF7E7FF0446042C6F
:100BB00016D19D48006940F004009B490861084631
:100BC000006940F0400008614FF43020FFF7D5FF86
:100BD00004469548006941F6FB7108409249086156
:100BE000204610BD00209049C96911F0020F01D0C4
:100BF000012000E00020704730B5A5250424FFF750
:100C0000F1FF00B100254FF43020FFF75DFF0446EF
:100C1000042C3BD185488449886085488860084613
:100C2000006940F0200008610846006940F040007B
:100C300008614FF43020FFF747FF0446042C1CD115
:100C40007948006941F6DF71084077490861084634
:100C5000006940F010000861764805804FF40050AC
:100C6000FFF732FF0446052C10D06F48006941F6AB
:100C7000EF7108406C49086108E0052C06D06A480D
:100C8000006941F6EF71084067490861204630BDB0
:100C9000F0B504460D4604260027F002FFF714FFC6
:100CA0000646042E22D16048006940F001005E49EA
:100CB00008612580F002FFF707FF0646042E0ED1DB
:100CC000A71C280C3880F002FFF7FEFE06465648A7
:100CD000006941F6FE7108405349086106E0524838
:100CE000006941F6FE7108404F4908613046F0BD89
:100CF00070B504460D460426F002FFF7E5FE0646F1
:100D0000042E11D14848006940F0010046490861AD
:100D10002580F002FFF7D8FE06464348006941F6F9
:100D2000FE71084040490861304670BD70B5054607
:100D30000E460424E002FFF7C7FE0446042C17D138
:100D40003A48394988603A4888600846006940F066
:100D5000100008612E80E002FFF7B6FE0446052C65
:100D600006D03148006941F6EF7108402E4908610C
:100D7000204670BD2DE9F04304464FF6FF76374616
:100D8000B046B1460425E443E6B2C4F30727C4F3F2
:100D900007484FEA1469E802FFF796FE0546042D5E
:100DA0003ED1224820498860214888600846006971
:100DB00040F010000861FF2E06D01F4806804FF457
:100DC0000050FFF781FE0546042D08D1FF2F06D005
:100DD0001A4807804FF40050FFF776FE0546042DB1
:100DE00009D1B8F1FF0F06D01548A0F80C88E80229
:100DF000FFF76AFE0546042D09D1B9F1FF0F06D0B1
:100E00000F48A0F80E98E802FFF75EFE0546052D94
:100E100006D00548006941F6EF71084002490861B3
:100E20002846BDE8F083000000200240230167450A
:100E3000AB89EFCD00F8FF1F08F8FF1F0AF8FF1F6E
:100E400000F0FF1F30B5054604244FF43020FFF7B3
:100E50003BFE0446042C41D15F48604988606048ED
:100E600088600846006940F0200008610846006973
:100E700040F0400008614FF43020FFF725FE0446A3
:100E8000042C22D15548006941F6DF7108405349CE
:100E900008610846006940F0100008611DB100209B
:100EA0005049088002E0A5204E4908804FF43020C8
:100EB000FFF70AFE0446052C10D04848006941F6A9
:100EC000EF7108404549086108E0052C06D0434809
:100ED000006941F6DF71084040490861204630BD95
:100EE000F0B505460E46174604243B483B4988604A
:100EF0003B488860E002FFF7E7FD0446042C19D167
:100F00003648006940F010003449086147F0F800A5
:100F100030432843344908804FF40050FFF7D4FD94
:100F20000446052C06D02D48006941F6EF710840B3
:100F30002A4908612046F0BD2848C06980087047EA
:100F40002648006A704700202449096811F0200FE4
:100F500001D0012000E00020704729B11F4A12692A
:100F600002431E4B1A6104E01C4A126982431B4B68
:100F70001A61704701460020012908D1174AD26939
:100F800012F0010F01D0012008E0002006E0134A12
:100F9000D2680A4201D0012000E0002070470F49CA
:100FA000C860704704200D49C96801F0010101299A
:100FB00001D101200EE00949C96811F0040F01D0E8
:100FC000022007E00549C96811F0100F01D0032085
:100FD00000E0042070470000230167450020024024
:100FE000AB89EFCD00F8FF1F02F8FF1F10B50446D4
:100FF000CA48844208D10121042000F024FB0021CA
:10100000042000F020FB46E0C548844208D10121BD
:10101000082000F018FB0021082000F014FB3AE043
:10102000C048844208D10121102000F00CFB0021AF
:10103000102000F008FB2EE0BB48844208D10121BB
:10104000202000F000FB0021202000F0FCFA22E02C
:10105000B648844208D10121402000F0F4FA002172
:10106000402000F0F0FA16E0B148844208D1012196
:10107000802000F0E8FA0021802000F0E4FA0AE085
:10108000AC48844207D10121801500F0DCFA002130
:10109000A01500F0D8FA10BD10B50121084600F0E7
:1010A000D2FA0021012000F0CEFA10BD2DE9F04166
:1010B000024600250026002000230024002791F886
:1010C00003C00CF00F0591F803C01CF0100F03D003
:1010D00091F802C04CEA0505B1F800C01CF0FF0F02
:1010E00031D0146800202BE04FF0010C0CFA00F313
:1010F000B1F800C00CEA03069E4220D183004FF0F5
:101100000F0C0CFA03F7BC4305FA03FC4CEA040489
:1011100091F803C0BCF1280F06D14FF0010C0CFA76
:1011200000FCC2F814C00AE091F803C0BCF1480FFB
:1011300005D14FF0010C0CFA00FCC2F810C0401CA5
:101140000828D1D31460B1F800C0BCF1FF0F34DD22
:10115000546800202EE000F1080C4FF0010808FA56
:101160000CF3B1F800C00CEA03069E4221D18300C3
:101170004FF00F0C0CFA03F7BC4305FA03FC4CEAE2
:10118000040491F803C0BCF1280F05D100F1080C4C
:1011900008FA0CF8C2F8148091F803C0BCF1480FAB
:1011A00007D100F1080C4FF0010808FA0CF8C2F85A
:1011B0001080401C0828CED35460BDE8F0814FF663
:1011C000FF710180022181700421C17070470246C5
:1011D000002093680B4201D0012000E000207047FE
:1011E0000146886880B2704702460020D3680B42EF
:1011F00001D0012000E0002070470146C86880B29D
:10120000704701617047416170470AB1016100E0B8
:1012100041617047C16070474FF480320A43826178
:101220008161826182698269704702460020424B77
:1012300018684FF68073184040EA021008433E4B8E
:10124000186070473D49C8617047F0B50A460023F1
:1012500000240021002500F00046B6F1004F02D125
:10126000354EF16901E0344E7168C0F3034583B235
:1012700000F44016B6F5401F08D121F070612E4EE3
:10128000766826F070662C4F7E6012E000F48016BF
:10129000B6F5801F06D1032606FA05F4A14341F0F6
:1012A000706106E0460D360103FA06F6B14341F0DF
:1012B000706122B1460D360103FA06F6314300F0A3
:1012C0000046B6F1004F02D11B4EF16101E01A4E0B
:1012D0007160F0BD30B500228B071C0F0F2303FA9D
:1012E00004F2154B08338C1053F824309343124CFE
:1012F00008348D1044F8253023468C1053F82430E0
:101300008C07240F00FA04F423430B4C08348D108F
:1013100044F8253030BD0A49086070470008014094
:10132000000C014000100140001401400018014071
:10133000001C01400020014000000140000020424C
:10134000DC002042DB48006840F00100D949086019
:1013500008464068D8490840D649486008460068B1
:10136000D6490840D34908600846006820F4802028
:1013700008600846406820F4FE0048604FF41F00F3
:1013800088607047CB49096821F48031C94A1160EF
:101390001146096821F480211160B0F5803F03D027
:1013A000B0F5802F0ED106E0C249096841F48031C2
:1013B000C04A116007E0BF49096841F4A021BD4A55
:1013C000116000E000BF00BF704710B50146002269
:1013D000002300204A11012A02D1B64C236806E0FE
:1013E000022A02D1B34C236A01E0B24C636A01F0D5
:1013F0001F02012494401C4201D0012000E0002083
:1014000010BD70B500240025002600BF3120FFF775
:10141000DCFF0646641CB4F5A06F01D0002EF5D0A9
:101420003120FFF7D2FF08B1012500E00025284652
:1014300070BD014600209F4A106820F0F80040EA85
:10144000C100106070479E49086070470246002046
:10145000984B586820F47C1042EA01031843954BDE
:101460005860704796490866704701460020914AC7
:10147000506820F003000843506070478D48406872
:1014800000F00C007047014600208A4A506820F0A6
:10149000F00008435060704701460020854A5068BC
:1014A00020F4E06008435060704701460020814A04
:1014B000506820F4605040EAC1005060704729B184
:1014C0007C4A527A02437B4B5A7206E0794A527A3E
:1014D000C343DBB21A40774B5A72704779490860B0
:1014E000704701460020734A506820F4404008438A
:1014F000506070470021744A11706E4A82F82010C3
:10150000012802D0042808D103E001216E4A11709D
:1015100004E005216C4A117000E000BF00BF704775
:101520006A49086070476349096A0143614A116268
:10153000704767490860704730B5002100220024D9
:1015400000235C4D6D6805F00C0121B1042905D024
:10155000082923D105E05F4D056022E05D4D05605F
:101560001FE0544D6D6805F47012524D6D6805F41E
:101570008034022505EB92421CB9574D5543056056
:101580000BE04C4D6D6815F4003F03D0524D5543B0
:10159000056002E04F4D5543056002E04D4D05608A
:1015A00000BF00BF434D6D6805F0F00109094B4DC8
:1015B0006B5C0568DD4045603E4D6D6805F4E0619B
:1015C000090A464D6B5C4568DD408560394D6D68A4
:1015D00005F46051C90A414D6B5C4568DD40C5604A
:1015E000344D6D6805F44041890B3D4D6B5CC56819
:1015F000B5FBF3F5056130BD29B12E4A52690243AE
:101600002C4B5A6104E02B4A52698243294B5A61A0
:10161000704729B1274A92690243264B9A6104E038
:10162000244A92698243234B9A61704729B1214A27
:10163000D26902431F4BDA6104E01E4AD269824339
:101640001C4BDA61704729B11A4AD2680243194B20
:10165000DA6004E0174AD2688243164BDA607047BA
:1016600029B1144A12690243124B1A6104E0114A6B
:10167000126982430F4B1A6170471A49086070471C
:101680000F49C86470470B49C87170470948406AE0
:1016900040F0807007494862704701460020054AC3
:1016A00092680A4201D0012000E000207047014901
:1016B00088727047001002400000FFF8FFFFF6FE3E
:1016C00000004242D80042422010024080044242C0
:1016D0003C04424200127A0000093D000000002054
:1016E000100000204004424210B50446FF488442E6
:1016F00008D10121C014FFF7A6FF0021E014FFF775
:10170000A2FFC4E0B4F1804F08D101210846FFF7E1
:10171000A7FF00210120FFF7A3FFB8E0F4488442AF
:1017200008D101210220FFF79BFF00210220FFF7D3
:1017300097FFACE0EF48844208D101210420FFF775
:101740008FFF00210420FFF78BFFA0E0EA488442CE
:1017500008D101210820FFF783FF00210820FFF7AF
:101760007FFF94E0E548844208D101211020FFF773
:1017700077FF00211020FFF773FF88E0E0488442E4
:1017800008D101212020FFF76BFF00212020FFF767
:1017900067FF7CE0DB48844208D101214014FFF759
:1017A00052FF00216014FFF74EFF70E0D6488442DC
:1017B00009D10121C804FFF746FF00214FF40020A2
:1017C000FFF741FF63E0D148844209D101210805B8
:1017D000FFF739FF00214FF48010FFF734FF56E088
:1017E000CB48844209D101214805FFF72CFF002195
:1017F0004FF40010FFF727FF49E0C648844208D1A4
:1018000001214020FFF72CFF00214020FFF728FF97
:101810003DE0C148844208D101218020FFF720FF2C
:1018200000218020FFF71CFF31E0BC48844208D132
:1018300001218015FFF714FF0021A015FFF710FF0D
:1018400025E0B748844209D101210804FFF7FBFED7
:1018500000214FF48030FFF7F6FE18E0B1488442D3
:1018600009D101214804FFF7EEFE00214FF40030BA
:10187000FFF7E9FE0BE0AC48844208D1012188045F
:10188000FFF7E1FE00214FF48020FFF7DCFE10BDE2
:1018900000220288954B98420ED09A4B98420BD06A
:1018A000B0F1804F08D0924B984205D0914B9842AE
:1018B00002D0914B984204D14FF68F731A404B8857
:1018C0001A438E4B984207D08D4B984204D04FF666
:1018D000FF431A40CB881A4302808B8883850B888C
:1018E0000385824B98420BD0864B984208D08C4B94
:1018F000984205D08B4B984202D08B4B984201D135
:101900000B7A038601238382704770B5002400227E
:101910000023058C4FF6FE7635400584028C8388C3
:10192000048B4FF68F752C40B51E2C400D882C4330
:10193000751E2A400D892A434D882A436B4DA842C3
:101940000BD0704DA84208D0754DA84205D0754DFA
:10195000A84202D0744DA84213D14FF6F7752A4021
:101960004D892A434FF6FB752A408D882A434FF64E
:10197000FF652B404FF6FF552B408D892B43CD89BA
:101980002B4383800483CD888586028470BD70B527
:10199000002400220023058C4FF6EF7635400584A5
:1019A000028C8388048B48F6FF752C404FF6FF4568
:1019B0002C400D882D0644EA15444FF6DF752A4069
:1019C0000D892D0542EA15424D882D0542EA154242
:1019D000464DA84202D04B4DA8421BD14FF67F7511
:1019E0002A404D892D0542EA15424FF6BF752A401F
:1019F0008D882D0542EA15424FF6FF352B404FF2F8
:101A0000FF752B408D89AD0443EA1543CD89AD04A4
:101A100043EA154383800483CD880587028470BD23
:101A200070B5002400220023058C4FF6FF66354078
:101A30000584028C8388848B4FF68F752C404FF67B
:101A4000FC752C400D882C434FF6FF552A400D891C
:101A50002D0642EA15424D882D0642EA1542234DD5
:101A6000A84202D0274DA8421BD14FF2FF752A4051
:101A70004D892D0642EA15424FF6FF352A408D88E2
:101A80002D0642EA15424EF6FF752B404DF6FF75C6
:101A90002B408D892D0543EA1543CD892D0543EA59
:101AA000154383808483CD888587028470BD70B59B
:101AB000002200230024058C4EF6FF763540058475
:101AC000038C8488828B48F6FF752A404FF6FF45C9
:101AD0002A400D882D0642EA15424DF6FF752B402F
:101AE0000D892D0743EA15434D881FE0002C014066
:101AF0000004004000080040000C004000100040BE
:101B00000014004000340140004C014000500140EE
:101B10000054014000180040001C0040002000401C
:101B20000040014000440140004801402D0743EAC5
:101B30001543F94DA84202D0F84DA84206D14BF604
:101B4000FF752C408D89AD0544EA1544848082835D
:101B5000CD88A0F84050038470BD828B4FF2FF33D4
:101B60001A408283828B0B0642EA134282837047BB
:101B7000F0B50C461546002200210026078C4EF6D3
:101B8000FF7C07EA0C070784828B018C27073E0C39
:101B900040F6FF473A402F0642EA17421F0742EA43
:101BA0001742DD4FB8420ED0DC4FB8420BD0B0F137
:101BB000804F08D0DA4FB84205D0DA4FB84202D091
:101BC000D94FB84206D14DF6FF77394046F48057D9
:101BD000394305E047F6FF57394044F4805739430D
:101BE00082830184F0BD828B4FF6F3731A408283A7
:101BF000828B0A4382837047F0B50C46154600225B
:101C000000210026078C4FF6FF6C07EA0C070784BB
:101C1000828B018C27063E0C4FF60C773A401F054D
:101C200045EA17473A43BC4FB8420ED0BB4FB842C3
:101C30000BD0B0F1804F08D0B94FB84205D0B94FA2
:101C4000B84202D0B84FB84206D14FF6FF573940DC
:101C500046F48077394305E04FF2FF57394044F4AA
:101C60008077394382830184F0BD028B4FF2FF33CA
:101C70001A400283028B0B0642EA1342028370472A
:101C8000F0B50C461546002200210026078C4FF6C1
:101C9000EF7C07EA0C070784028B018C27053E0CBA
:101CA00040F6FF473A401F0742EA17422F0642EA32
:101CB0001742994FB8420ED0984FB8420BD0B0F1AE
:101CC000804F08D0964FB84205D0964FB84202D008
:101CD000954FB84206D14FF6DF77394046F01007EE
:101CE000394305E04FF65F77394044F01007394338
:101CF00002830184F0BD028B4FF6F3731A40028316
:101D0000028B0A4302837047F0B50C461546002249
:101D10000021068C4FF6FE773E400684028B018C34
:101D20004FF60C7632401E0545EA164632437A4E8F
:101D3000B0420ED0794EB0420BD0B0F1804F08D0F7
:101D4000774EB04205D0774EB04202D0764EB042C8
:101D500006D14FF6FD76314044F00106314305E0EF
:101D60004FF6F576314044F0010631430283018499
:101D7000F0BD70B505460C46674885420ED06748F1
:101D800085420BD0B5F1804F08D06548854205D01B
:101D90006448854202D06448854200D100E000BF1B
:101DA000208850B92389A28861882846FFF7ACFFB4
:101DB000E1882846FFF79FFF25E0208804280AD104
:101DC0002389A28861882846FFF75AFFE1882846C0
:101DD000FFF74BFF17E0208808280AD12389A28843
:101DE00061882846FFF708FFE1882846FFF7FBFED9
:101DF00009E02389A28861882846FFF7B9FEE188B7
:101E00002846FFF7AAFE70BD2DE9F04105460C46B5
:101E100000260127608808B9022600E00026A08875
:101E2000012801D1022700E001272088A0B92389D9
:101E3000A28861882846FFF767FFE1882846FFF7F8
:101E40005AFF23893A4631462846FFF719FFE188B1
:101E50002846FFF70AFF13E02389A28861882846F5
:101E6000FFF70EFFE1882846FFF7FFFE23893A4679
:101E700031462846FFF748FFE1882846FFF73BFF39
:101E8000BDE8F0810A884B881A438B881A43CB88B7
:101E90001A430B891A434B891A438B891A43A0F8BA
:101EA000442070474FF6FF71818000210180C1807E
:101EB0004180017270470021018041808180C18092
:101EC000018141818181C181704700210180418070
:101ED000012181800021C1800181704700210180A2
:101EE00041808180C180018141818181704721B120
:101EF000028842F00102028004E002884FF6FE737D
:101F00001A400280704789B1B0F8442042F4004280
:101F1000A0F8442010E00000002C014000340140F3
:101F20000004004000080040000C0040B0F84420CD
:101F3000C2F30E02A0F84420704710B51AB183898D
:101F40000B43838104E08389CC43A4B22340838183
:101F500010BD8182704741EA0203A0F84830704703
:101F600010B51AB183890B43838104E08389CC4384
:101F7000A4B22340838110BD01894FF6F87211404D
:101F8000018170470A46002101894FF68F7319407D
:101F900011430181704730B504460D46294620465D
:101FA000FFF7F0FF208940F00700208130BD2DE9C8
:101FB000F04104460D4616461F46602D06D13B46AD
:101FC000012231462046FFF75BFE05E03B46012239
:101FD00031462046FFF798FE29462046FFF7D2FFFC
:101FE000208940F007002081BDE8F08130B50C4623
:101FF00000210189C9B21D0642EA1545254329433E
:10200000018130BD2DE9F04105460E461746984640
:10201000002443463A4631462846FFF7E7FF2C891D
:102020004FF6F8710C4044F007044FF68F710C40E6
:1020300044F070042C81BDE8F081F0B504460D46F3
:1020400016461F463B46324629462046FFF7CEFF3E
:10205000208940F480402081F0BD01858282704754
:102060000A46002101884FF68F7319401143018001
:102070007047F0B50C4615461E460021002200238D
:102080000189028B038C4FF6F877394021434FF6D4
:10209000FC473A4040F201173A434FF6DD773B40A8
:1020A000370545EA17473B43018102830384F0BDAE
:1020B0000A460021018B4FF68F73194011430183AB
:1020C00070470A460021018B48F6FF73194013063A
:1020D00041EA1341018370470A460021818B4FF684
:1020E0008F7319401143818370470A460021818B09
:1020F00048F6FF731940130641EA13418183704784
:1021000021B1028842F08002028004E002884FF68A
:102110007F731A400280704721B1828842F0040226
:10212000828004E082884FF6FB731A4082807047F9
:1021300021B1828842F00802828004E082884FF652
:10214000F7731A408280704721B1828842F0010201
:10215000828004E082884FF6FE731A4082807047C6
:102160000A460021018B4FF6F77319401143018392
:1021700070470A460021018B4FF2FF731940130686
:1021800041EA1341018370470A460021818B4FF6D3
:10219000F77319401143818370470A460021818BF0
:1021A0004FF2FF731940130641EA134181837047D0
:1021B0000A460021018B4FF6FB731940114301833E
:1021C00070470A460021018B4FF6FF331940130672
:1021D00041EA1341018370470A460021818B4FF683
:1021E000FB7319401143818370470A460021818B9C
:1021F0004FF6FF331940130641EA134181837047BC
:102200000A460021018B4FF67F7319401143018369
:1022100070470A460021018BC1F30E01130641EA03
:102220001341018370470A460021818B4FF67F736B
:1022300019401143818370470A460021818BC1F305
:102240000E01130641EA1341818370470A460021BB
:10225000018C4FF6FD7319401143018470470A4603
:102260000021018C4FF6F773194011430184704728
:102270000A460021018C4FF6DF731940130541EA2D
:102280001341018470470A460021018C4FF67F7389
:102290001940130541EA1341018470470A460021A1
:1022A000018C4FF6FF531940130641EA1341018494
:1022B00070470A460021018C4FF2FF731940130644
:1022C00041EA1341018470470A460021018C4DF612
:1022D000FF731940130741EA13410184704730B579
:1022E000002301248C40A3B2048CDD43ADB22C400A
:1022F0000484048C02FA01F5ADB22C43048430BD91
:1023000030B5002304248C40A3B2048CDD43ADB26D
:102310002C400484048C02FA01F5ADB22C430484F1
:1023200030BD70B503460020002418461830012542
:102330008D40ACB21D8CE643B6B235401D8409B168
:10234000082909D100EB6100056825F070050560DA
:102350000568154305600CE00D1FADB200EB65008C
:10236000056825F4E04505600568160645EA16454A
:10237000056070BD21B1028842F00202028004E0D3
:1023800002884FF6FD731A400280704721B102881F
:1023900042F00402028004E002884FF6FB731A4008
:1023A0000280704721B1828842F08002828004E07E
:1023B00082884FF67F731A408280704702884FF6FA
:1023C000F7731A40028002880A43028070478288AD
:1023D0004FF68F731A40828082880A43828070474A
:1023E00002894FF6F8731A40028102890A4302817A
:1023F000704702894FF67F731A40028102890A43AF
:10240000028170478184704781857047818670475B
:102410000187704781877047A0F840107047028895
:102420004FF6FF431A40028002880A430280704739
:102430000146888E70470146088F70470146888F95
:1024400070470146B1F8400070470146888C7047DC
:102450000146088D704702460020138A0B4201D0C6
:10246000012000E000207047CA430282704730B567
:102470000246002000230024158A05EA01039589FD
:1024800005EA010413B10CB1012000E0002030BDC9
:10249000CA4302827047000010B50446FC488442DB
:1024A00009D101218803FFF7CEF800214FF48040C5
:1024B000FFF7C9F832E0F748844209D10121480406
:1024C000FFF7CEF800214FF40030FFF7C9F825E000
:1024D000F148844209D101218804FFF7C1F80021A5
:1024E0004FF48020FFF7BCF818E0EC48844209D193
:1024F0000121C804FFF7B4F800214FF40020FFF7D2
:10250000AFF80BE0E648844208D101210805FFF747
:10251000A7F800214FF48010FFF7A2F810BD2DE9B5
:10252000F04786B005460E460024A24600BFA146ED
:102530000027B08900B100BF2F462C8A4CF6FF70EF
:102540000440F08804432C82AC894EF6F31004401A
:10255000B08831890843718908430443AC81AC8A4F
:102560004FF6FF400440B0890443AC8201A8FEF757
:10257000E3FFC748874202D1DDF810A001E0DDF893
:102580000CA0A88910F4004F08D00AEBCA0000EB99
:102590000A1031684900B0FBF1F807E00AEBCA0005
:1025A00000EB0A1031688900B0FBF1F86420B8FB39
:1025B000F0F004012009642101FB1089A88910F4BE
:1025C000004F08D0322000EBC900B0FBF1F000F062
:1025D0000700044308E0322000EB09106421B0FB3F
:1025E000F1F000F00F0004432C8106B0BDE8F08745
:1025F0004FF41651016000218180C18001810C21BE
:10260000418100218181704710B502460020108A67
:102610004FF2FF0318400B884C8823438C882343D8
:10262000CC8823431843108210BD002101804180D3
:102630008180C180704721B1828942F40052828139
:1026400004E082894DF6FF731A4082817047F0B52D
:1026500003460024002600250020A1F510676A3FEC
:1026600000D100BF1846C1F3421401F01F06012734
:1026700007FA06F5012C01D10C3004E0022C01D13F
:10268000103000E014301AB107682F43076002E0F1
:102690000768AF430760F0BD10B51AB1838A0B43DA
:1026A000838204E0838ACC43A4B22340838210BD9A
:1026B000028A4FF6F0731A400282028A0A430282AB
:1026C000704782894FF2FF731A40828182890A43E0
:1026D0008281704721B1828942F00202828104E046
:1026E00082894FF6FD731A4082817047028A4FF645
:1026F000DF731A400282028A0A430282704721B1C4
:10270000028A42F48042028204E0028A4BF6FF739E
:102710001A4002827047C1F3080282807047014666
:102720008888C0F308007047818941F001018181E8
:102730007047028BD2B20283028B42EA01220283EB
:102740007047028B02F47F420283028B0A430283AA
:10275000704721B1828A42F02002828204E0828A9C
:102760004FF6DF731A408282704721B1828A42F0AD
:102770001002828204E0828A4FF6EF731A4082824E
:10278000704721B1828A42F00802828204E0828A84
:102790004FF6F7731A408282704721B1828942F462
:1027A0000042828103E08289C2F30E028281704777
:1027B00021B1828A42F40062828204E0828A4FF26E
:1027C000FF731A4082827047828A4FF6FB731A4069
:1027D0008282828A0A438282704721B1828A42F0D1
:1027E0000202828204E0828A4FF6FD731A408282DE
:1027F000704702460020B1F5007F00D100BF13886A
:102800000B4201D0012000E00020704701F400726B
:10281000B2F5007F00D100BFCA430280704770B597
:1028200002460024002300250020A1F510666A3E20
:1028300000D100BFC1F3421501F01F03012606FAC3
:1028400003F3012D02D19689334006E0022D02D117
:10285000168A334001E0968A33400C12012606FAAC
:1028600004F41688344013B10CB1012000E00020BC
:1028700070BD10B500220023A1F510646A3C00D1A0
:1028800000BF0A1201249440A3B2DC43048010BDAF
:10289000003801400044004000480040004C004027
:1028A0000050004000210020674A126842F4803244
:1028B000654B1A6000BF644A126802F40030491C7C
:1028C00010B9B1F5A06FF6D15F4A126812F4003F5B
:1028D00001D0012000E00020012842D15B4A1268AB
:1028E00042F01002594B1A601A46126822F0030295
:1028F0001A601A46126842F002021A60524A52687E
:10290000514B5A601A4652685A601A46526842F44D
:1029100080625A601A46526822F47C125A601A4643
:10292000526842F4E8125A601A46126842F0807205
:102930001A6000BF444A126812F0007FFAD0424A7F
:10294000526822F00302404B5A601A46526842F025
:1029500002025A6000BF3C4A526802F00C02082A88
:10296000F9D1704710B5FFF79DFF10BD10B536487F
:10297000006840F001003449086008464068344966
:1029800008403149486008460068324908402E49ED
:1029900008600846006820F4802008600846406807
:1029A00020F4FE0048604FF41F008860FFF7DAFF54
:1029B0004FF000602849086010BD10B500210020CC
:1029C0000022214B5B6803F00C0121B1042906D0E1
:1029D000082928D107E0214B214C236027E01F4B19
:1029E0001F4C236023E0184B5B6803F47010164BF8
:1029F0005B6803F48032022303EB904022B9194B49
:102A00004343174C23600DE00F4B5B6813F4003F0A
:102A100004D0144B4343124C236003E00F4B434359
:102A20000F4C236003E00D4B0D4C236000BF00BF33
:102A3000054B5B68C3F303130B4CE15C084B1B684D
:102A4000CB40074C236010BD001002400020024024
:102A50000000FFF8FFFFF6FE08ED00E000127A002C
:102A60001400002000093D001800002010B5FEF7FA
:102A700069FC4FF48030FEF785FCFEF7C2FCFF498D
:102A8000087008460078012826D11020FDF7DEFFE7
:102A90000220FDF7C7FF0020FEF7F5FC4FF4806031
:102AA000FEF7FAFC0020FEF700FD4FF4E0114FF4B2
:102AB0008030FEF7CBFC0120FEF7D4FC00BF3920AC
:102AC000FEF783FC0028FAD00220FEF7CEFC00BF00
:102AD000FEF7D4FC0828FBD101217D20FEF799FDEB
:102AE00001218803FEF795FD0121C802FEF791FD43
:102AF00001210846FEF79AFD01214802FEF789FDF3
:102B000010BD10B54FF40070DD4908801820C87062
:102B100003208870DB48FEF7C9FA4FF48060D8497B
:102B200008800420C870D748FEF7C0FA4FF4406010
:102B3000D34908800420C870D348FEF7B7FA4FF491
:102B4000A850CF4908801020C870D048FEF7AEFAD0
:102B50001820CB4908801020C87003208870CC480A
:102B6000FEF7A4FA10BD10B500214FF00060FDF78C
:102B70003BFB4FF4E060FDF7F7FA09210220FEF776
:102B8000A9FB4FF40070C3490860002008710C20B5
:102B90004871012088710846FDF7B5FE1720BE492F
:102BA00008700020487088700120C8700846FDF742
:102BB000E0FA04210846FEF78DFB1020B5490860B5
:102BC000002008710C204871012088710846FDF72B
:102BD0009AFE0A20B04908700020487088700120D1
:102BE000C8700846FDF7C5FA05210420FEF772FB00
:102BF0002020A8490860002008710C20487101209D
:102C000088710846FDF77FFE1720A3490870002051
:102C1000487088700120C8700846FDF7AAFA19208C
:102C20009D49087000204870032088700120C870FA
:102C30000846FDF79EFA1C2097490870002048704E
:102C400088700120C8700846FDF793FA10BD00B5E2
:102C500087B04FF4E13003900020ADF81000ADF8DC
:102C60001200ADF81400ADF818000C20ADF81600F5
:102C700003A98A48FFF753FC0020ADF80400ADF823
:102C800006004FF40070ADF808000020ADF80A000F
:102C900001A98248FFF7B8FC012240F225517F4884
:102CA000FFF7D5FC40217D48FFF7B0FD01217B48AF
:102CB000FFF7C1FC07B000BD70B54FF4E1667410BA
:102CC00065107748FEF710FD40F60F607549888063
:102CD00000200880C880488008727148FEF7D8FD3F
:102CE00070207149088001204880042088800846AF
:102CF000C680022008810820488140018881002088
:102D0000C8816748FEF701FE6748C48001466448F1
:102D1000FEF73DFE6448C58001466148FEF780FE2F
:102D20004FF400606149088040104880801088801E
:102D30007520C8804FF480500881400048814000D1
:102D400088815748FFF79EF801215548FFF78CFB13
:102D5000012211465248FFF7F0F801215048FFF7D1
:102D6000C6F801214E48FFF7CEF82007FEF7BCFC5D
:102D700048F69F404B49888040F2CF700880002081
:102D8000C88048802007FEF783FD01218807FFF7F0
:102D90006BFB012211469007FFF7CFF8012188074E
:102DA000FFF7A5F870BD70B504460D46E1B23B488B
:102DB000FFF7B1FC00BF40213848FFF71AFD01289A
:102DC000F9D1204670BD10B5FFF750FEFFF799FE10
:102DD000FFF73DFF10BD05E0082100BF0A00A1F18B
:102DE0000101FBD10200A0F10100F5D1704710B53F
:102DF000044603E040F24C40FFF7EDFF2000A4F151
:102E00000104F7D110BD2DE9FF5F4FF480611E482A
:102E1000FEF7F9F90A20FFF7EAFF2548008800F0DD
:102E2000B3FA009000F0B5FA82460022214B00F080
:102E30003CFA80464FF066321F4B00F0C5F904465D
:102E400000F0BDFA03904FF480610F48FEF7D9F906
:102E500001200290039801904FF400610A48FEF7A8
:102E6000D2F90A20FFF7C3FF1148008800F08CFA5E
:102E7000009000F08EFA044600221FE02C00002093
:102E80002800002000080140000C0140001801400B
:102E900000100140340000202D00002000380140C7
:102EA000002C014048000020520000206200002059
:102EB000400000200000B04066660A404D4B00F024
:102EC000F4F980464FF066324B4B00F07DF98246B4
:102ED00000F075FA06464FF400614848FEF791F994
:102EE0003046019900F088FA02D202200290019641
:102EF0004FF480614248FEF786F90A20FFF777FF1A
:102F00004048008800F040FA009000F042FA804605
:102F10000022384B00F0C9F982464FF06632364B3A
:102F200000F052F9044600F04AFA07464FF4806177
:102F30003348FEF766F93846019900F05DFA01D290
:102F400003200290029804B0BDE8F09F2DE9F04103
:102F5000002500260027A84616E0FFF754FF044688
:102F6000012C04D0022C04D0032C06D103E06D1CEC
:102F700007E0761C05E07F1C03E023A000F012FBB5
:102F800000BF00BF08F10108B8F10A0FE5DB042D0E
:102F900002DD0120BDE8F081052E01DD0220F9E708
:102FA000052F01DD0320F5E70020F3E7FFF70BFF16
:102FB00000F0FCF819A000F0F5FA1AE0FFF7C6FFE0
:102FC0000446012C04D0022C06D0032C0CD107E0BF
:102FD00021A000F0E7FA0BE022A000F0E3FA07E0FE
:102FE00023A000F0DFFA03E024A000F0DBFA00BF2A
:102FF00000BFE3E70000B04066660A40000C0140F5
:1030000000140140400000200D0A2077726F6E67A7
:103010002072657475726E200D0A00000D0A202D55
:103020002D2D2DE8BF99E698AFE4B880E4B8AA4109
:103030004443E5AE9EE9AA8C28444D41E4BCA0E897
:10304000BE93292DE9A29CE889B2E8AF86E588AB5A
:103050002D2D2D0D0A0000000D0A20626C756520D3
:103060000D0A0000200D0A20726564200D0A000080
:103070000D0A20677265656E200D0A000D0A206337
:10308000616E2774206A7564676520636F6C6F7268
:10309000200D0A00704700BFFEE700BFFEE700BF3B
:1030A000FEE700BFFEE770477047704770470000BB
:1030B00008B501210846FEF79FFA01214FF404707C
:1030C000FEF7A7FA0220ADF8000000208DF80300FB
:1030D00069463948FDF7EAFF08BD00B591B03748A9
:1030E000FDF7DEFA36480690364807900020089033
:1030F0000120099000200A900B904FF480700C90F2
:1031000080000D9020200E9000020F900020109063
:1031100006A92A48FDF764FB01212848FDF78BFB2F
:10312000002001908DF8080001208DF809004FF46F
:10313000602003900020049001208DF8140001A964
:103140001F484C38FDF7B3F84FF44040FEF7C9F97B
:10315000052301220B211A484C38FDF740F90121C3
:1031600017484C38FDF7DAF8012115484C38FDF7BF
:10317000CAF813484C38FDF7E8F800BF10484C383F
:10318000FDF7E8F80028F9D10D484C38FDF7ECF8C8
:1031900000BF0B484C38FDF7ECF80028F9D10121AD
:1031A00007484C38FDF7EFF811B000BD10B5FFF738
:1031B0007FFFFFF792FF10BD0010014008000240A2
:1031C0004C240140400000202DE9FE4F81EA030419
:1031D00021F0004504F0004423F000414FF0000AC4
:1031E000009450EA050302D052EA010304D1002002
:1031F000014603B0BDE8F08FC1F30A53C5F30A548A
:103200002344A3F2F3330193A0FB02B3C5F31305E8
:1032100045F4801CC1F3130141F480180CFB023308
:1032200000FB083E810A930A41EA8C5143EA885325
:10323000A1FB03474FEA9C2505FB03734FEA982641
:1032400001FB06373D05260545EA1435BBEB0601B3
:103250006EEB0503850E920E45EA8C1542EA881244
:10326000A5FB0206261E67EB00070C0D44EA03349B
:10327000A61947EB1350C1F313044FF0000319468E
:10328000E5FB02014FEA033545EA1455019B4FEA7D
:103290000432009CA3F10C03CDE900A445EA060525
:1032A00002932B4600F0F7F8A3E72DE9F04D81EAF1
:1032B000030404F0004B21F0004714464FF0000ACD
:1032C00023F0004150EA070220D054EA01021DD049
:1032D000C1F30A550246C1F31300C7F30A56C7F3F8
:1032E000130340F4801143F48013A6EB0508101B70
:1032F000D64608F2FD3873EB010002D308F101084D
:1033000001E092185B41B8F1000F03DA002001469A
:10331000BDE8F08D00204FF48015064607460EE00C
:10332000B2EB040C73EB010C04D3121B064363EBEA
:1033300001032F436D084FEA300092185B4150EAB9
:10334000050CEDD152EA030012D082EA040083EAB0
:103350000105284303D100224FF0004308E0101B71
:103360008B4102D20122002302E06FF001025310D0
:103370001AEB060047EB085110EB0A0041EB0B017A
:10338000BDE8F04D00F07AB896230022114600F017
:1033900046B800F0004230F000400DD0C10D01F5FC
:1033A000607142EA01510022C0F31600520742EA5E
:1033B000D00240071143704700200146704701F0DA
:1033C000004230B421F0004150EA010306D00B0D59
:1033D000A3F56073C1F31301002B02DC30BC0020A5
:1033E0007047440F44EAC104C100A01830BC00EB90
:1033F000C35000F00BB80000002801DBC0F1004012
:10340000002901DBC1F10041884270470029A8BFB3
:103410007047401C490008BF20F00100704710B4FD
:10342000B0FA80FC00FA0CF050EA010404BF10BCB2
:10343000704749B1CCF1200421FA04F411FA0CF1DF
:1034400018BF012121430843A3EB0C01CB1D4FEA18
:1034500000614FEA102048BF0020BCBF10BC70477D
:1034600000EBC35010440029A4BF10BC7047401C9F
:10347000490008BF20F0010010BC704710B5002BB8
:1034800008DA401C41F1000192185B411A4301D156
:1034900020F0010010BD2DE9FF4D934611B1B1FAA6
:1034A00081F202E0B0FA80F22032924600F05AF83F
:1034B000039A0746884640EA0B0011435B460843DF
:1034C00004D13846414604B0BDE8F08D114653EAB8
:1034D000020016D0CAF14002584600F052F80446E5
:1034E0000D464FF0010658465246039900F03AF84F
:1034F000084300D10026344345EAE675274345EAF0
:1035000008080E984FF00005A0EB0A014FEAD720FB
:103510000A314FEA47532A4640EA48504FEAD82436
:1035200002D500200146CEE7281844EB0151DDE921
:103530000C45001904B06941BDE8F04D9EE700005C
:10354000064C074D06E0E06840F0010394E80700F0
:1035500098471034AC42F6D3FCF7EEFDF435000882
:1035600014360008202A04DB203A00FA02F1002079
:1035700070479140C2F1200320FA03F319439040B1
:103580007047202A04DB203A21FA02F0002170471C
:1035900021FA02F3D040C2F12002914008431946BB
:1035A00070470000014A024900F013B8A72D000837
:1035B0004400002002E008C8121F08C1002AFAD106
:1035C00070477047002001E001C1121F002AFBD1A3
:1035D00070472DE9F04104460F461646002503E0EA
:1035E0003946B0476D1C641C20780028F8D1284665
:1035F000BDE8F081143600080000002048000000FB
:10360000B43500085C36000848000020280400009B
:10361000C435000800000000010203040102030495
:10362000060708090204060800A24A040000000078
:103630000000000001020304060708090000000062
:10364000000000000000000000000000000000007A
:0C3650000000000000000000000000006E
:0400000508000131BD
:00000001FF
